{
  "_format": "hh-sol-artifact-1",
  "contractName": "CliqueMint",
  "sourceName": "contracts/smartcontract.sol",
  "abi": [
    {
      "inputs": [
        {
          "internalType": "uint256",
          "name": "cap_",
          "type": "uint256"
        }
      ],
      "stateMutability": "nonpayable",
      "type": "constructor"
    },
    {
      "anonymous": false,
      "inputs": [
        {
          "indexed": true,
          "internalType": "address",
          "name": "owner",
          "type": "address"
        },
        {
          "indexed": true,
          "internalType": "address",
          "name": "approved",
          "type": "address"
        },
        {
          "indexed": true,
          "internalType": "uint256",
          "name": "tokenId",
          "type": "uint256"
        }
      ],
      "name": "Approval",
      "type": "event"
    },
    {
      "anonymous": false,
      "inputs": [
        {
          "indexed": true,
          "internalType": "address",
          "name": "owner",
          "type": "address"
        },
        {
          "indexed": true,
          "internalType": "address",
          "name": "operator",
          "type": "address"
        },
        {
          "indexed": false,
          "internalType": "bool",
          "name": "approved",
          "type": "bool"
        }
      ],
      "name": "ApprovalForAll",
      "type": "event"
    },
    {
      "anonymous": false,
      "inputs": [
        {
          "indexed": true,
          "internalType": "address",
          "name": "previousOwner",
          "type": "address"
        },
        {
          "indexed": true,
          "internalType": "address",
          "name": "newOwner",
          "type": "address"
        }
      ],
      "name": "OwnershipTransferred",
      "type": "event"
    },
    {
      "anonymous": false,
      "inputs": [
        {
          "indexed": true,
          "internalType": "address",
          "name": "from",
          "type": "address"
        },
        {
          "indexed": true,
          "internalType": "address",
          "name": "to",
          "type": "address"
        },
        {
          "indexed": true,
          "internalType": "uint256",
          "name": "tokenId",
          "type": "uint256"
        }
      ],
      "name": "Transfer",
      "type": "event"
    },
    {
      "inputs": [
        {
          "internalType": "address",
          "name": "to",
          "type": "address"
        },
        {
          "internalType": "uint256",
          "name": "tokenId",
          "type": "uint256"
        }
      ],
      "name": "approve",
      "outputs": [],
      "stateMutability": "nonpayable",
      "type": "function"
    },
    {
      "inputs": [
        {
          "internalType": "address",
          "name": "owner",
          "type": "address"
        }
      ],
      "name": "balanceOf",
      "outputs": [
        {
          "internalType": "uint256",
          "name": "",
          "type": "uint256"
        }
      ],
      "stateMutability": "view",
      "type": "function"
    },
    {
      "inputs": [],
      "name": "cap",
      "outputs": [
        {
          "internalType": "uint256",
          "name": "",
          "type": "uint256"
        }
      ],
      "stateMutability": "view",
      "type": "function"
    },
    {
      "inputs": [
        {
          "internalType": "uint256",
          "name": "tokenId",
          "type": "uint256"
        }
      ],
      "name": "getApproved",
      "outputs": [
        {
          "internalType": "address",
          "name": "",
          "type": "address"
        }
      ],
      "stateMutability": "view",
      "type": "function"
    },
    {
      "inputs": [
        {
          "internalType": "address",
          "name": "owner",
          "type": "address"
        },
        {
          "internalType": "address",
          "name": "operator",
          "type": "address"
        }
      ],
      "name": "isApprovedForAll",
      "outputs": [
        {
          "internalType": "bool",
          "name": "",
          "type": "bool"
        }
      ],
      "stateMutability": "view",
      "type": "function"
    },
    {
      "inputs": [],
      "name": "name",
      "outputs": [
        {
          "internalType": "string",
          "name": "",
          "type": "string"
        }
      ],
      "stateMutability": "view",
      "type": "function"
    },
    {
      "inputs": [],
      "name": "owner",
      "outputs": [
        {
          "internalType": "address",
          "name": "",
          "type": "address"
        }
      ],
      "stateMutability": "view",
      "type": "function"
    },
    {
      "inputs": [
        {
          "internalType": "uint256",
          "name": "tokenId",
          "type": "uint256"
        }
      ],
      "name": "ownerOf",
      "outputs": [
        {
          "internalType": "address",
          "name": "",
          "type": "address"
        }
      ],
      "stateMutability": "view",
      "type": "function"
    },
    {
      "inputs": [],
      "name": "renounceOwnership",
      "outputs": [],
      "stateMutability": "nonpayable",
      "type": "function"
    },
    {
      "inputs": [
        {
          "internalType": "address",
          "name": "to",
          "type": "address"
        },
        {
          "internalType": "string",
          "name": "uri",
          "type": "string"
        }
      ],
      "name": "safeMint",
      "outputs": [
        {
          "internalType": "uint256",
          "name": "",
          "type": "uint256"
        }
      ],
      "stateMutability": "nonpayable",
      "type": "function"
    },
    {
      "inputs": [
        {
          "internalType": "address",
          "name": "from",
          "type": "address"
        },
        {
          "internalType": "address",
          "name": "to",
          "type": "address"
        },
        {
          "internalType": "uint256",
          "name": "tokenId",
          "type": "uint256"
        }
      ],
      "name": "safeTransferFrom",
      "outputs": [],
      "stateMutability": "nonpayable",
      "type": "function"
    },
    {
      "inputs": [
        {
          "internalType": "address",
          "name": "from",
          "type": "address"
        },
        {
          "internalType": "address",
          "name": "to",
          "type": "address"
        },
        {
          "internalType": "uint256",
          "name": "tokenId",
          "type": "uint256"
        },
        {
          "internalType": "bytes",
          "name": "_data",
          "type": "bytes"
        }
      ],
      "name": "safeTransferFrom",
      "outputs": [],
      "stateMutability": "nonpayable",
      "type": "function"
    },
    {
      "inputs": [
        {
          "internalType": "address",
          "name": "operator",
          "type": "address"
        },
        {
          "internalType": "bool",
          "name": "approved",
          "type": "bool"
        }
      ],
      "name": "setApprovalForAll",
      "outputs": [],
      "stateMutability": "nonpayable",
      "type": "function"
    },
    {
      "inputs": [
        {
          "internalType": "bytes4",
          "name": "interfaceId",
          "type": "bytes4"
        }
      ],
      "name": "supportsInterface",
      "outputs": [
        {
          "internalType": "bool",
          "name": "",
          "type": "bool"
        }
      ],
      "stateMutability": "view",
      "type": "function"
    },
    {
      "inputs": [],
      "name": "symbol",
      "outputs": [
        {
          "internalType": "string",
          "name": "",
          "type": "string"
        }
      ],
      "stateMutability": "view",
      "type": "function"
    },
    {
      "inputs": [
        {
          "internalType": "uint256",
          "name": "tokenId",
          "type": "uint256"
        }
      ],
      "name": "tokenURI",
      "outputs": [
        {
          "internalType": "string",
          "name": "",
          "type": "string"
        }
      ],
      "stateMutability": "view",
      "type": "function"
    },
    {
      "inputs": [
        {
          "internalType": "address",
          "name": "from",
          "type": "address"
        },
        {
          "internalType": "address",
          "name": "to",
          "type": "address"
        },
        {
          "internalType": "uint256",
          "name": "tokenId",
          "type": "uint256"
        }
      ],
      "name": "transferFrom",
      "outputs": [],
      "stateMutability": "nonpayable",
      "type": "function"
    },
    {
      "inputs": [
        {
          "internalType": "address",
          "name": "newOwner",
          "type": "address"
        }
      ],
      "name": "transferOwnership",
      "outputs": [],
      "stateMutability": "nonpayable",
      "type": "function"
    }
  ],
  "bytecode": "0x60a06040523480156200001157600080fd5b5060405162002e9838038062002e988339818101604052810190620000379190620002e1565b6040518060400160405280600e81526020017f436c69717565204d696e74696e670000000000000000000000000000000000008152506040518060400160405280600681526020017f434c4951554500000000000000000000000000000000000000000000000000008152508160009080519060200190620000bb9291906200021a565b508060019080519060200190620000d49291906200021a565b505050620000f7620000eb6200014c60201b60201c565b6200015460201b60201c565b600081116200013d576040517f08c379a000000000000000000000000000000000000000000000000000000000815260040162000134906200034f565b60405180910390fd5b8060808181525050506200040b565b600033905090565b6000600660009054906101000a900473ffffffffffffffffffffffffffffffffffffffff16905081600660006101000a81548173ffffffffffffffffffffffffffffffffffffffff021916908373ffffffffffffffffffffffffffffffffffffffff1602179055508173ffffffffffffffffffffffffffffffffffffffff168173ffffffffffffffffffffffffffffffffffffffff167f8be0079c531659141344cd1fd0a4f28419497f9722a3daafe3b4186f6b6457e060405160405180910390a35050565b82805462000228906200038c565b90600052602060002090601f0160209004810192826200024c576000855562000298565b82601f106200026757805160ff191683800117855562000298565b8280016001018555821562000298579182015b82811115620002975782518255916020019190600101906200027a565b5b509050620002a79190620002ab565b5090565b5b80821115620002c6576000816000905550600101620002ac565b5090565b600081519050620002db81620003f1565b92915050565b600060208284031215620002f457600080fd5b60006200030484828501620002ca565b91505092915050565b60006200031c60108362000371565b91507f4552433732313a206361702069732030000000000000000000000000000000006000830152602082019050919050565b600060208201905081810360008301526200036a816200030d565b9050919050565b600082825260208201905092915050565b6000819050919050565b60006002820490506001821680620003a557607f821691505b60208210811415620003bc57620003bb620003c2565b5b50919050565b7f4e487b7100000000000000000000000000000000000000000000000000000000600052602260045260246000fd5b620003fc8162000382565b81146200040857600080fd5b50565b608051612a7162000427600039600061070a0152612a716000f3fe608060405234801561001057600080fd5b50600436106101165760003560e01c8063715018a6116100a2578063b88d4fde11610071578063b88d4fde146102cd578063c87b56dd146102e9578063d204c45e14610319578063e985e9c514610349578063f2fde38b1461037957610116565b8063715018a61461026b5780638da5cb5b1461027557806395d89b4114610293578063a22cb465146102b157610116565b806323b872dd116100e957806323b872dd146101b5578063355274ea146101d157806342842e0e146101ef5780636352211e1461020b57806370a082311461023b57610116565b806301ffc9a71461011b57806306fdde031461014b578063081812fc14610169578063095ea7b314610199575b600080fd5b61013560048036038101906101309190611d05565b610395565b604051610142919061248e565b60405180910390f35b610153610477565b60405161016091906124a9565b60405180910390f35b610183600480360381019061017e9190611d57565b610509565b6040516101909190612427565b60405180910390f35b6101b360048036038101906101ae9190611cc9565b61058e565b005b6101cf60048036038101906101ca9190611b6f565b6106a6565b005b6101d9610706565b6040516101e691906126eb565b60405180910390f35b61020960048036038101906102049190611b6f565b61072e565b005b61022560048036038101906102209190611d57565b61074e565b6040516102329190612427565b60405180910390f35b61025560048036038101906102509190611b0a565b610800565b60405161026291906126eb565b60405180910390f35b6102736108b8565b005b61027d610940565b60405161028a9190612427565b60405180910390f35b61029b61096a565b6040516102a891906124a9565b60405180910390f35b6102cb60048036038101906102c69190611c39565b6109fc565b005b6102e760048036038101906102e29190611bbe565b610b7d565b005b61030360048036038101906102fe9190611d57565b610bdf565b60405161031091906124a9565b60405180910390f35b610333600480360381019061032e9190611c75565b610cd2565b60405161034091906126eb565b60405180910390f35b610363600480360381019061035e9190611b33565b610d69565b604051610370919061248e565b60405180910390f35b610393600480360381019061038e9190611b0a565b610dfd565b005b60007f80ac58cd000000000000000000000000000000000000000000000000000000007bffffffffffffffffffffffffffffffffffffffffffffffffffffffff1916827bffffffffffffffffffffffffffffffffffffffffffffffffffffffff1916148061046057507f5b5e139f000000000000000000000000000000000000000000000000000000007bffffffffffffffffffffffffffffffffffffffffffffffffffffffff1916827bffffffffffffffffffffffffffffffffffffffffffffffffffffffff1916145b80610470575061046f82610ef5565b5b9050919050565b6060600080546104869061290f565b80601f01602080910402602001604051908101604052809291908181526020018280546104b29061290f565b80156104ff5780601f106104d4576101008083540402835291602001916104ff565b820191906000526020600020905b8154815290600101906020018083116104e257829003601f168201915b5050505050905090565b600061051482610f5f565b610553576040517f08c379a000000000000000000000000000000000000000000000000000000000815260040161054a9061260b565b60405180910390fd5b6004600083815260200190815260200160002060009054906101000a900473ffffffffffffffffffffffffffffffffffffffff169050919050565b60006105998261074e565b90508073ffffffffffffffffffffffffffffffffffffffff168373ffffffffffffffffffffffffffffffffffffffff16141561060a576040517f08c379a00000000000000000000000000000000000000000000000000000000081526004016106019061268b565b60405180910390fd5b8073ffffffffffffffffffffffffffffffffffffffff16610629610fcb565b73ffffffffffffffffffffffffffffffffffffffff161480610658575061065781610652610fcb565b610d69565b5b610697576040517f08c379a000000000000000000000000000000000000000000000000000000000815260040161068e9061258b565b60405180910390fd5b6106a18383610fd3565b505050565b6106b76106b1610fcb565b8261108c565b6106f6576040517f08c379a00000000000000000000000000000000000000000000000000000000081526004016106ed906126ab565b60405180910390fd5b61070183838361116a565b505050565b60007f0000000000000000000000000000000000000000000000000000000000000000905090565b61074983838360405180602001604052806000815250610b7d565b505050565b6000806002600084815260200190815260200160002060009054906101000a900473ffffffffffffffffffffffffffffffffffffffff169050600073ffffffffffffffffffffffffffffffffffffffff168173ffffffffffffffffffffffffffffffffffffffff1614156107f7576040517f08c379a00000000000000000000000000000000000000000000000000000000081526004016107ee906125cb565b60405180910390fd5b80915050919050565b60008073ffffffffffffffffffffffffffffffffffffffff168273ffffffffffffffffffffffffffffffffffffffff161415610871576040517f08c379a0000000000000000000000000000000000000000000000000000000008152600401610868906125ab565b60405180910390fd5b600360008373ffffffffffffffffffffffffffffffffffffffff1673ffffffffffffffffffffffffffffffffffffffff168152602001908152602001600020549050919050565b6108c0610fcb565b73ffffffffffffffffffffffffffffffffffffffff166108de610940565b73ffffffffffffffffffffffffffffffffffffffff1614610934576040517f08c379a000000000000000000000000000000000000000000000000000000000815260040161092b9061262b565b60405180910390fd5b61093e60006113c6565b565b6000600660009054906101000a900473ffffffffffffffffffffffffffffffffffffffff16905090565b6060600180546109799061290f565b80601f01602080910402602001604051908101604052809291908181526020018280546109a59061290f565b80156109f25780601f106109c7576101008083540402835291602001916109f2565b820191906000526020600020905b8154815290600101906020018083116109d557829003601f168201915b5050505050905090565b610a04610fcb565b73ffffffffffffffffffffffffffffffffffffffff168273ffffffffffffffffffffffffffffffffffffffff161415610a72576040517f08c379a0000000000000000000000000000000000000000000000000000000008152600401610a699061254b565b60405180910390fd5b8060056000610a7f610fcb565b73ffffffffffffffffffffffffffffffffffffffff1673ffffffffffffffffffffffffffffffffffffffff16815260200190815260200160002060008473ffffffffffffffffffffffffffffffffffffffff1673ffffffffffffffffffffffffffffffffffffffff16815260200190815260200160002060006101000a81548160ff0219169083151502179055508173ffffffffffffffffffffffffffffffffffffffff16610b2c610fcb565b73ffffffffffffffffffffffffffffffffffffffff167f17307eab39ab6107e8899845ad3d59bd9653f200f220920489ca2b5937696c3183604051610b71919061248e565b60405180910390a35050565b610b8e610b88610fcb565b8361108c565b610bcd576040517f08c379a0000000000000000000000000000000000000000000000000000000008152600401610bc4906126ab565b60405180910390fd5b610bd98484848461148c565b50505050565b6060610bea82610f5f565b610c29576040517f08c379a0000000000000000000000000000000000000000000000000000000008152600401610c209061266b565b60405180910390fd5b6000600860008481526020019081526020016000208054610c499061290f565b80601f0160208091040260200160405190810160405280929190818152602001828054610c759061290f565b8015610cc25780601f10610c9757610100808354040283529160200191610cc2565b820191906000526020600020905b815481529060010190602001808311610ca557829003601f168201915b5050505050905080915050919050565b6000610cdc610706565b6001610ce860076114e8565b610cf291906127cf565b1115610d33576040517f08c379a0000000000000000000000000000000000000000000000000000000008152600401610d2a906126cb565b60405180910390fd5b610d3d60076114f6565b6000610d4960076114e8565b9050610d55848261150c565b610d5f818461152a565b8091505092915050565b6000600560008473ffffffffffffffffffffffffffffffffffffffff1673ffffffffffffffffffffffffffffffffffffffff16815260200190815260200160002060008373ffffffffffffffffffffffffffffffffffffffff1673ffffffffffffffffffffffffffffffffffffffff16815260200190815260200160002060009054906101000a900460ff16905092915050565b610e05610fcb565b73ffffffffffffffffffffffffffffffffffffffff16610e23610940565b73ffffffffffffffffffffffffffffffffffffffff1614610e79576040517f08c379a0000000000000000000000000000000000000000000000000000000008152600401610e709061262b565b60405180910390fd5b600073ffffffffffffffffffffffffffffffffffffffff168173ffffffffffffffffffffffffffffffffffffffff161415610ee9576040517f08c379a0000000000000000000000000000000000000000000000000000000008152600401610ee0906124eb565b60405180910390fd5b610ef2816113c6565b50565b60007f01ffc9a7000000000000000000000000000000000000000000000000000000007bffffffffffffffffffffffffffffffffffffffffffffffffffffffff1916827bffffffffffffffffffffffffffffffffffffffffffffffffffffffff1916149050919050565b60008073ffffffffffffffffffffffffffffffffffffffff166002600084815260200190815260200160002060009054906101000a900473ffffffffffffffffffffffffffffffffffffffff1673ffffffffffffffffffffffffffffffffffffffff1614159050919050565b600033905090565b816004600083815260200190815260200160002060006101000a81548173ffffffffffffffffffffffffffffffffffffffff021916908373ffffffffffffffffffffffffffffffffffffffff160217905550808273ffffffffffffffffffffffffffffffffffffffff166110468361074e565b73ffffffffffffffffffffffffffffffffffffffff167f8c5be1e5ebec7d5bd14f71427d1e84f3dd0314c0f7b2291e5b200ac8c7c3b92560405160405180910390a45050565b600061109782610f5f565b6110d6576040517f08c379a00000000000000000000000000000000000000000000000000000000081526004016110cd9061256b565b60405180910390fd5b60006110e18361074e565b90508073ffffffffffffffffffffffffffffffffffffffff168473ffffffffffffffffffffffffffffffffffffffff16148061115057508373ffffffffffffffffffffffffffffffffffffffff1661113884610509565b73ffffffffffffffffffffffffffffffffffffffff16145b8061116157506111608185610d69565b5b91505092915050565b8273ffffffffffffffffffffffffffffffffffffffff1661118a8261074e565b73ffffffffffffffffffffffffffffffffffffffff16146111e0576040517f08c379a00000000000000000000000000000000000000000000000000000000081526004016111d79061264b565b60405180910390fd5b600073ffffffffffffffffffffffffffffffffffffffff168273ffffffffffffffffffffffffffffffffffffffff161415611250576040517f08c379a00000000000000000000000000000000000000000000000000000000081526004016112479061252b565b60405180910390fd5b61125b838383611556565b611266600082610fd3565b6001600360008573ffffffffffffffffffffffffffffffffffffffff1673ffffffffffffffffffffffffffffffffffffffff16815260200190815260200160002060008282546112b69190612825565b925050819055506001600360008473ffffffffffffffffffffffffffffffffffffffff1673ffffffffffffffffffffffffffffffffffffffff168152602001908152602001600020600082825461130d91906127cf565b92505081905550816002600083815260200190815260200160002060006101000a81548173ffffffffffffffffffffffffffffffffffffffff021916908373ffffffffffffffffffffffffffffffffffffffff160217905550808273ffffffffffffffffffffffffffffffffffffffff168473ffffffffffffffffffffffffffffffffffffffff167fddf252ad1be2c89b69c2b068fc378daa952ba7f163c4a11628f55a4df523b3ef60405160405180910390a4505050565b6000600660009054906101000a900473ffffffffffffffffffffffffffffffffffffffff16905081600660006101000a81548173ffffffffffffffffffffffffffffffffffffffff021916908373ffffffffffffffffffffffffffffffffffffffff1602179055508173ffffffffffffffffffffffffffffffffffffffff168173ffffffffffffffffffffffffffffffffffffffff167f8be0079c531659141344cd1fd0a4f28419497f9722a3daafe3b4186f6b6457e060405160405180910390a35050565b61149784848461116a565b6114a38484848461155b565b6114e2576040517f08c379a00000000000000000000000000000000000000000000000000000000081526004016114d9906124cb565b60405180910390fd5b50505050565b600081600001549050919050565b6001816000016000828254019250508190555050565b6115268282604051806020016040528060008152506116f2565b5050565b8060086000848152602001908152602001600020908051906020019061155192919061192e565b505050565b505050565b600061157c8473ffffffffffffffffffffffffffffffffffffffff1661174d565b156116e5578373ffffffffffffffffffffffffffffffffffffffff1663150b7a026115a5610fcb565b8786866040518563ffffffff1660e01b81526004016115c79493929190612442565b602060405180830381600087803b1580156115e157600080fd5b505af192505050801561161257506040513d601f19601f8201168201806040525081019061160f9190611d2e565b60015b611695573d8060008114611642576040519150601f19603f3d011682016040523d82523d6000602084013e611647565b606091505b5060008151141561168d576040517f08c379a0000000000000000000000000000000000000000000000000000000008152600401611684906124cb565b60405180910390fd5b805181602001fd5b63150b7a0260e01b7bffffffffffffffffffffffffffffffffffffffffffffffffffffffff1916817bffffffffffffffffffffffffffffffffffffffffffffffffffffffff1916149150506116ea565b600190505b949350505050565b6116fc8383611760565b611709600084848461155b565b611748576040517f08c379a000000000000000000000000000000000000000000000000000000000815260040161173f906124cb565b60405180910390fd5b505050565b600080823b905060008111915050919050565b600073ffffffffffffffffffffffffffffffffffffffff168273ffffffffffffffffffffffffffffffffffffffff1614156117d0576040517f08c379a00000000000000000000000000000000000000000000000000000000081526004016117c7906125eb565b60405180910390fd5b6117d981610f5f565b15611819576040517f08c379a00000000000000000000000000000000000000000000000000000000081526004016118109061250b565b60405180910390fd5b61182560008383611556565b6001600360008473ffffffffffffffffffffffffffffffffffffffff1673ffffffffffffffffffffffffffffffffffffffff168152602001908152602001600020600082825461187591906127cf565b92505081905550816002600083815260200190815260200160002060006101000a81548173ffffffffffffffffffffffffffffffffffffffff021916908373ffffffffffffffffffffffffffffffffffffffff160217905550808273ffffffffffffffffffffffffffffffffffffffff16600073ffffffffffffffffffffffffffffffffffffffff167fddf252ad1be2c89b69c2b068fc378daa952ba7f163c4a11628f55a4df523b3ef60405160405180910390a45050565b82805461193a9061290f565b90600052602060002090601f01602090048101928261195c57600085556119a3565b82601f1061197557805160ff19168380011785556119a3565b828001600101855582156119a3579182015b828111156119a2578251825591602001919060010190611987565b5b5090506119b091906119b4565b5090565b5b808211156119cd5760008160009055506001016119b5565b5090565b60006119e46119df84612737565b612706565b9050828152602081018484840111156119fc57600080fd5b611a078482856128cd565b509392505050565b6000611a22611a1d84612767565b612706565b905082815260208101848484011115611a3a57600080fd5b611a458482856128cd565b509392505050565b600081359050611a5c816129df565b92915050565b600081359050611a71816129f6565b92915050565b600081359050611a8681612a0d565b92915050565b600081519050611a9b81612a0d565b92915050565b600082601f830112611ab257600080fd5b8135611ac28482602086016119d1565b91505092915050565b600082601f830112611adc57600080fd5b8135611aec848260208601611a0f565b91505092915050565b600081359050611b0481612a24565b92915050565b600060208284031215611b1c57600080fd5b6000611b2a84828501611a4d565b91505092915050565b60008060408385031215611b4657600080fd5b6000611b5485828601611a4d565b9250506020611b6585828601611a4d565b9150509250929050565b600080600060608486031215611b8457600080fd5b6000611b9286828701611a4d565b9350506020611ba386828701611a4d565b9250506040611bb486828701611af5565b9150509250925092565b60008060008060808587031215611bd457600080fd5b6000611be287828801611a4d565b9450506020611bf387828801611a4d565b9350506040611c0487828801611af5565b925050606085013567ffffffffffffffff811115611c2157600080fd5b611c2d87828801611aa1565b91505092959194509250565b60008060408385031215611c4c57600080fd5b6000611c5a85828601611a4d565b9250506020611c6b85828601611a62565b9150509250929050565b60008060408385031215611c8857600080fd5b6000611c9685828601611a4d565b925050602083013567ffffffffffffffff811115611cb357600080fd5b611cbf85828601611acb565b9150509250929050565b60008060408385031215611cdc57600080fd5b6000611cea85828601611a4d565b9250506020611cfb85828601611af5565b9150509250929050565b600060208284031215611d1757600080fd5b6000611d2584828501611a77565b91505092915050565b600060208284031215611d4057600080fd5b6000611d4e84828501611a8c565b91505092915050565b600060208284031215611d6957600080fd5b6000611d7784828501611af5565b91505092915050565b611d8981612859565b82525050565b611d988161286b565b82525050565b6000611da982612797565b611db381856127ad565b9350611dc38185602086016128dc565b611dcc816129ce565b840191505092915050565b6000611de2826127a2565b611dec81856127be565b9350611dfc8185602086016128dc565b611e05816129ce565b840191505092915050565b6000611e1d6032836127be565b91507f4552433732313a207472616e7366657220746f206e6f6e20455243373231526560008301527f63656976657220696d706c656d656e74657200000000000000000000000000006020830152604082019050919050565b6000611e836026836127be565b91507f4f776e61626c653a206e6577206f776e657220697320746865207a65726f206160008301527f64647265737300000000000000000000000000000000000000000000000000006020830152604082019050919050565b6000611ee9601c836127be565b91507f4552433732313a20746f6b656e20616c7265616479206d696e746564000000006000830152602082019050919050565b6000611f296024836127be565b91507f4552433732313a207472616e7366657220746f20746865207a65726f2061646460008301527f72657373000000000000000000000000000000000000000000000000000000006020830152604082019050919050565b6000611f8f6019836127be565b91507f4552433732313a20617070726f766520746f2063616c6c6572000000000000006000830152602082019050919050565b6000611fcf602c836127be565b91507f4552433732313a206f70657261746f7220717565727920666f72206e6f6e657860008301527f697374656e7420746f6b656e00000000000000000000000000000000000000006020830152604082019050919050565b60006120356038836127be565b91507f4552433732313a20617070726f76652063616c6c6572206973206e6f74206f7760008301527f6e6572206e6f7220617070726f76656420666f7220616c6c00000000000000006020830152604082019050919050565b600061209b602a836127be565b91507f4552433732313a2062616c616e636520717565727920666f7220746865207a6560008301527f726f2061646472657373000000000000000000000000000000000000000000006020830152604082019050919050565b60006121016029836127be565b91507f4552433732313a206f776e657220717565727920666f72206e6f6e657869737460008301527f656e7420746f6b656e00000000000000000000000000000000000000000000006020830152604082019050919050565b60006121676020836127be565b91507f4552433732313a206d696e7420746f20746865207a65726f20616464726573736000830152602082019050919050565b60006121a7602c836127be565b91507f4552433732313a20617070726f76656420717565727920666f72206e6f6e657860008301527f697374656e7420746f6b656e00000000000000000000000000000000000000006020830152604082019050919050565b600061220d6020836127be565b91507f4f776e61626c653a2063616c6c6572206973206e6f7420746865206f776e65726000830152602082019050919050565b600061224d6029836127be565b91507f4552433732313a207472616e73666572206f6620746f6b656e2074686174206960008301527f73206e6f74206f776e00000000000000000000000000000000000000000000006020830152604082019050919050565b60006122b3602f836127be565b91507f4552433732314d657461646174613a2055524920717565727920666f72206e6f60008301527f6e6578697374656e7420746f6b656e00000000000000000000000000000000006020830152604082019050919050565b60006123196021836127be565b91507f4552433732313a20617070726f76616c20746f2063757272656e74206f776e6560008301527f72000000000000000000000000000000000000000000000000000000000000006020830152604082019050919050565b600061237f6031836127be565b91507f4552433732313a207472616e736665722063616c6c6572206973206e6f74206f60008301527f776e6572206e6f7220617070726f7665640000000000000000000000000000006020830152604082019050919050565b60006123e56014836127be565b91507f4552433732313a206361702065786365656465640000000000000000000000006000830152602082019050919050565b612421816128c3565b82525050565b600060208201905061243c6000830184611d80565b92915050565b60006080820190506124576000830187611d80565b6124646020830186611d80565b6124716040830185612418565b81810360608301526124838184611d9e565b905095945050505050565b60006020820190506124a36000830184611d8f565b92915050565b600060208201905081810360008301526124c38184611dd7565b905092915050565b600060208201905081810360008301526124e481611e10565b9050919050565b6000602082019050818103600083015261250481611e76565b9050919050565b6000602082019050818103600083015261252481611edc565b9050919050565b6000602082019050818103600083015261254481611f1c565b9050919050565b6000602082019050818103600083015261256481611f82565b9050919050565b6000602082019050818103600083015261258481611fc2565b9050919050565b600060208201905081810360008301526125a481612028565b9050919050565b600060208201905081810360008301526125c48161208e565b9050919050565b600060208201905081810360008301526125e4816120f4565b9050919050565b600060208201905081810360008301526126048161215a565b9050919050565b600060208201905081810360008301526126248161219a565b9050919050565b6000602082019050818103600083015261264481612200565b9050919050565b6000602082019050818103600083015261266481612240565b9050919050565b60006020820190508181036000830152612684816122a6565b9050919050565b600060208201905081810360008301526126a48161230c565b9050919050565b600060208201905081810360008301526126c481612372565b9050919050565b600060208201905081810360008301526126e4816123d8565b9050919050565b60006020820190506127006000830184612418565b92915050565b6000604051905081810181811067ffffffffffffffff8211171561272d5761272c61299f565b5b8060405250919050565b600067ffffffffffffffff8211156127525761275161299f565b5b601f19601f8301169050602081019050919050565b600067ffffffffffffffff8211156127825761278161299f565b5b601f19601f8301169050602081019050919050565b600081519050919050565b600081519050919050565b600082825260208201905092915050565b600082825260208201905092915050565b60006127da826128c3565b91506127e5836128c3565b9250827fffffffffffffffffffffffffffffffffffffffffffffffffffffffffffffffff0382111561281a57612819612941565b5b828201905092915050565b6000612830826128c3565b915061283b836128c3565b92508282101561284e5761284d612941565b5b828203905092915050565b6000612864826128a3565b9050919050565b60008115159050919050565b60007fffffffff0000000000000000000000000000000000000000000000000000000082169050919050565b600073ffffffffffffffffffffffffffffffffffffffff82169050919050565b6000819050919050565b82818337600083830152505050565b60005b838110156128fa5780820151818401526020810190506128df565b83811115612909576000848401525b50505050565b6000600282049050600182168061292757607f821691505b6020821081141561293b5761293a612970565b5b50919050565b7f4e487b7100000000000000000000000000000000000000000000000000000000600052601160045260246000fd5b7f4e487b7100000000000000000000000000000000000000000000000000000000600052602260045260246000fd5b7f4e487b7100000000000000000000000000000000000000000000000000000000600052604160045260246000fd5b6000601f19601f8301169050919050565b6129e881612859565b81146129f357600080fd5b50565b6129ff8161286b565b8114612a0a57600080fd5b50565b612a1681612877565b8114612a2157600080fd5b50565b612a2d816128c3565b8114612a3857600080fd5b5056fea264697066735822122087ccd56b19840f80dfb16e9bda73bffa6709ad08565f0ffa7ef59b56ca92507c64736f6c63430008000033",
  "linkReferences": {},
  "deployedLinkReferences": {}
}